{
  "contractName": "CryptoCity",
  "abi": [
    {
      "constant": true,
      "inputs": [
        {
          "name": "",
          "type": "uint256"
        }
      ],
      "name": "citiesCountries",
      "outputs": [
        {
          "name": "",
          "type": "uint256"
        }
      ],
      "payable": false,
      "stateMutability": "view",
      "type": "function"
    },
    {
      "constant": true,
      "inputs": [
        {
          "name": "",
          "type": "uint256"
        }
      ],
      "name": "countries",
      "outputs": [
        {
          "name": "president",
          "type": "address"
        },
        {
          "name": "slogan",
          "type": "string"
        },
        {
          "name": "flagUrl",
          "type": "string"
        }
      ],
      "payable": false,
      "stateMutability": "view",
      "type": "function"
    },
    {
      "constant": true,
      "inputs": [
        {
          "name": "",
          "type": "address"
        }
      ],
      "name": "userPendingWithdrawals",
      "outputs": [
        {
          "name": "",
          "type": "uint256"
        }
      ],
      "payable": false,
      "stateMutability": "view",
      "type": "function"
    },
    {
      "constant": true,
      "inputs": [
        {
          "name": "",
          "type": "uint256"
        },
        {
          "name": "",
          "type": "uint256"
        }
      ],
      "name": "countriesCities",
      "outputs": [
        {
          "name": "",
          "type": "uint256"
        }
      ],
      "payable": false,
      "stateMutability": "view",
      "type": "function"
    },
    {
      "constant": true,
      "inputs": [
        {
          "name": "",
          "type": "address"
        }
      ],
      "name": "userNicknames",
      "outputs": [
        {
          "name": "",
          "type": "string"
        }
      ],
      "payable": false,
      "stateMutability": "view",
      "type": "function"
    },
    {
      "constant": true,
      "inputs": [
        {
          "name": "",
          "type": "address"
        },
        {
          "name": "",
          "type": "uint256"
        }
      ],
      "name": "userCities",
      "outputs": [
        {
          "name": "",
          "type": "uint256"
        }
      ],
      "payable": false,
      "stateMutability": "view",
      "type": "function"
    },
    {
      "constant": true,
      "inputs": [
        {
          "name": "",
          "type": "uint256"
        }
      ],
      "name": "cities",
      "outputs": [
        {
          "name": "mayor",
          "type": "address"
        },
        {
          "name": "slogan",
          "type": "string"
        },
        {
          "name": "picture",
          "type": "string"
        },
        {
          "name": "purchases",
          "type": "uint256"
        }
      ],
      "payable": false,
      "stateMutability": "view",
      "type": "function"
    },
    {
      "constant": true,
      "inputs": [
        {
          "name": "",
          "type": "uint256"
        }
      ],
      "name": "cityPopulation",
      "outputs": [
        {
          "name": "",
          "type": "uint256"
        }
      ],
      "payable": false,
      "stateMutability": "view",
      "type": "function"
    },
    {
      "inputs": [],
      "payable": false,
      "stateMutability": "nonpayable",
      "type": "constructor"
    },
    {
      "payable": true,
      "stateMutability": "payable",
      "type": "fallback"
    },
    {
      "constant": false,
      "inputs": [],
      "name": "kill",
      "outputs": [],
      "payable": false,
      "stateMutability": "nonpayable",
      "type": "function"
    },
    {
      "constant": false,
      "inputs": [
        {
          "name": "countryId",
          "type": "uint256"
        },
        {
          "name": "_cities",
          "type": "uint256[]"
        },
        {
          "name": "_populations",
          "type": "uint256[]"
        }
      ],
      "name": "addCountry",
      "outputs": [],
      "payable": false,
      "stateMutability": "nonpayable",
      "type": "function"
    },
    {
      "constant": false,
      "inputs": [
        {
          "name": "countryId",
          "type": "uint256"
        },
        {
          "name": "slogan",
          "type": "string"
        }
      ],
      "name": "setCountrySlogan",
      "outputs": [],
      "payable": false,
      "stateMutability": "nonpayable",
      "type": "function"
    },
    {
      "constant": false,
      "inputs": [
        {
          "name": "countryId",
          "type": "uint256"
        },
        {
          "name": "_flagUrl",
          "type": "string"
        }
      ],
      "name": "setCountryPicture",
      "outputs": [],
      "payable": false,
      "stateMutability": "nonpayable",
      "type": "function"
    },
    {
      "constant": false,
      "inputs": [
        {
          "name": "cityId",
          "type": "uint256"
        },
        {
          "name": "_slogan",
          "type": "string"
        }
      ],
      "name": "setCitySlogan",
      "outputs": [],
      "payable": false,
      "stateMutability": "nonpayable",
      "type": "function"
    },
    {
      "constant": false,
      "inputs": [
        {
          "name": "cityId",
          "type": "uint256"
        },
        {
          "name": "_picture",
          "type": "string"
        }
      ],
      "name": "setCityPicture",
      "outputs": [],
      "payable": false,
      "stateMutability": "nonpayable",
      "type": "function"
    },
    {
      "constant": false,
      "inputs": [],
      "name": "withdraw",
      "outputs": [],
      "payable": false,
      "stateMutability": "nonpayable",
      "type": "function"
    },
    {
      "constant": true,
      "inputs": [
        {
          "name": "purchases",
          "type": "uint256"
        }
      ],
      "name": "getPrices",
      "outputs": [
        {
          "name": "",
          "type": "uint256[4]"
        }
      ],
      "payable": false,
      "stateMutability": "pure",
      "type": "function"
    },
    {
      "constant": false,
      "inputs": [
        {
          "name": "nickname",
          "type": "string"
        }
      ],
      "name": "setNickname",
      "outputs": [],
      "payable": false,
      "stateMutability": "nonpayable",
      "type": "function"
    },
    {
      "constant": false,
      "inputs": [
        {
          "name": "countryId",
          "type": "uint256"
        }
      ],
      "name": "assignCountry",
      "outputs": [
        {
          "name": "",
          "type": "bool"
        }
      ],
      "payable": false,
      "stateMutability": "nonpayable",
      "type": "function"
    },
    {
      "constant": false,
      "inputs": [
        {
          "name": "cityId",
          "type": "uint256"
        }
      ],
      "name": "buyCity",
      "outputs": [
        {
          "name": "",
          "type": "bool"
        }
      ],
      "payable": true,
      "stateMutability": "payable",
      "type": "function"
    }
  ],
  "bytecode": "0x6060604052341561000f57600080fd5b60008054600160a060020a033316600160a060020a03199091161790556112538061003b6000396000f3006060604052600436106101065763ffffffff7c01000000000000000000000000000000000000000000000000000000006000350416630537fd7b811461010b5780630788f69c1461013357806308e9daa51461018b57806315c06cf8146102b45780631c5d9faa146102d35780631fa62fb7146103245780632acefd0f1461037a5780632e9e6849146103d05780633ccfd60b146104645780633e9bf56d1461047757806341c0e1b5146104905780635ece9840146104a357806361a96314146105395780636a51b9181461055b5780636bec454a1461068c57806391492956146106ab578063ad5688d8146106f9578063c20f6dd31461074f578063c21c748314610765575b600080fd5b341561011657600080fd5b61012160043561077b565b60405190815260200160405180910390f35b341561013e57600080fd5b610189600480359060446024803590810190830135806020601f8201819004810201604051908101604052818152929190602084018383808284375094965061078d95505050505050565b005b341561019657600080fd5b6101a16004356107de565b604051600160a060020a038416815260606020820181815284546002600019610100600184161502019091160491830182905290604083019060808401908690801561022e5780601f106102035761010080835404028352916020019161022e565b820191906000526020600020905b81548152906001019060200180831161021157829003601f168201915b50508381038252845460026000196101006001841615020190911604808252602090910190859080156102a25780601f10610277576101008083540402835291602001916102a2565b820191906000526020600020905b81548152906001019060200180831161028557829003601f168201915b50509550505050505060405180910390f35b34156102bf57600080fd5b610121600160a060020a0360043516610804565b34156102de57600080fd5b61018960046024813581810190830135806020601f8201819004810201604051908101604052818152929190602084018383808284375094965061081695505050505050565b341561032f57600080fd5b610189600480359060446024803590810190830135806020601f8201819004810201604051908101604052818152929190602084018383808284375094965061084395505050505050565b341561038557600080fd5b610189600480359060446024803590810190830135806020601f8201819004810201604051908101604052818152929190602084018383808284375094965061088f95505050505050565b34156103db57600080fd5b61018960048035906044602480359081019083013580602081810201604051908101604052809392919081815260200183836020028082843782019150505050505091908035906020019082018035906020019080806020026020016040519081016040528093929190818152602001838360200280828437509496506108da95505050505050565b341561046f57600080fd5b610189610999565b341561048257600080fd5b6101216004356024356109e4565b341561049b57600080fd5b610189610a12565b34156104ae57600080fd5b6104c2600160a060020a0360043516610a3b565b60405160208082528190810183818151815260200191508051906020019080838360005b838110156104fe5780820151838201526020016104e6565b50505050905090810190601f16801561052b5780820380516001836020036101000a031916815260200191505b509250505060405180910390f35b341561054457600080fd5b610121600160a060020a0360043516602435610aeb565b341561056657600080fd5b610571600435610b06565b604051600160a060020a03851681526060810182905260806020820181815285546002600019610100600184161502019091160491830182905290604083019060a0840190879080156106055780601f106105da57610100808354040283529160200191610605565b820191906000526020600020905b8154815290600101906020018083116105e857829003601f168201915b50508381038252855460026000196101006001841615020190911604808252602090910190869080156106795780601f1061064e57610100808354040283529160200191610679565b820191906000526020600020905b81548152906001019060200180831161065c57829003601f168201915b5050965050505050505060405180910390f35b610697600435610b35565b604051901515815260200160405180910390f35b34156106b657600080fd5b6106c1600435610d7d565b6040518082608080838360005b838110156106e65780820151838201526020016106ce565b5050505090500191505060405180910390f35b341561070457600080fd5b610189600480359060446024803590810190830135806020601f82018190048102016040519081016040528181529291906020840183838082843750949650610e1795505050505050565b341561075a57600080fd5b610121600435610e62565b341561077057600080fd5b610697600435610e74565b60036020526000908152604090205481565b600082815260056020526040902054829033600160a060020a039081169116146107b657600080fd5b60008381526005602052604090206002018280516107d892916020019061110b565b50505050565b60016020819052600091825260409091208054600160a060020a03169181019060020183565b60076020526000908152604090205481565b600160a060020a033316600090815260086020526040902081805161083f92916020019061110b565b5050565b600082815260016020526040902054829033600160a060020a0390811691161461086c57600080fd5b6000838152600160208190526040909120018280516107d892916020019061110b565b600082815260056020526040902054829033600160a060020a039081169116146108b857600080fd5b60008381526005602052604090206001018280516107d892916020019061110b565b6000805433600160a060020a039081169116146108f657600080fd5b6000848152600260205260409020838051610915929160200190611189565b50600090505b82518110156107d857836003600085848151811061093557fe5b90602001906020020151815260208101919091526040016000205581818151811061095c57fe5b906020019060200201516004600085848151811061097657fe5b90602001906020020151815260208101919091526040016000205560010161091b565b600160a060020a033316600081815260076020526040808220805492905590919082156108fc0290839051600060405180830381858888f1935050505015156109e157600080fd5b50565b6002602052816000526040600020818154811015156109ff57fe5b6000918252602090912001549150829050565b60005433600160a060020a03908116911614610a2d57600080fd5b600054600160a060020a0316ff5b60086020528060005260406000206000915090508054600181600116156101000203166002900480601f016020809104026020016040519081016040528092919081815260200182805460018160011615610100020316600290048015610ae35780601f10610ab857610100808354040283529160200191610ae3565b820191906000526020600020905b815481529060010190602001808311610ac657829003601f168201915b505050505081565b6006602052816000526040600020818154811015156109ff57fe5b600560205260009081526040902080546003820154600160a060020a0390911691600181019160029091019084565b6000610b3f6111c3565b600083815260056020526040902060030154610b5a90610d7d565b60008481526005602052604090205490915033600160a060020a0390811691161415610b895760009150610d77565b6000838152600460205260409020541515610ba75760009150610d77565b8051600160a060020a033316600090815260076020526040902054340110610d7257805133600160a060020a0316600090815260076020908152604080832080543401949094039093558582526005905220600301805460010190556060810151600084815260056020908152604080832054600160a060020a039081168452600783528184208054909501909455868352600382528083205483526001909152902054161515610c7b57604081015160008054600160a060020a0316815260076020526040902080549091019055610cb6565b604081015160008481526003602090815260408083205483526001825280832054600160a060020a0316835260079091529020805490910190555b600083815260056020526040812054600160a060020a03161115610cf657600083815260056020526040902054610cf690600160a060020a031684610f8e565b6000838152600560205260409020805473ffffffffffffffffffffffffffffffffffffffff191633600160a060020a03811691909117909155610d399084611027565b600054600160a060020a03166108fc60208301519081150290604051600060405180830381858888f193505050501515610d7257600080fd5b600091505b50919050565b610d856111c3565b66470de4df82000080664380663abb800066038d7ea4c68000600060015b878111610deb5760078811610dbd57856002029550610dc7565b600a600c87020495505b60646005868803028796500460048102945092508285038490039150600101610da3565b608060405190810160409081529681526020810194909452509382015260608101929092525092915050565b600082815260016020526040902054829033600160a060020a03908116911614610e4057600080fd5b60008381526001602052604090206002018280516107d892916020019061110b565b60046020526000908152604090205481565b6000808080805b600086815260026020526040902054811015610f375760008681526002602052604081208054600492919084908110610eb057fe5b906000526020600020900154815260200190815260200160002054915033600160a060020a031660056000600260008a815260200190815260200160002084815481101515610efb57fe5b60009182526020808320909101548352820192909252604001902054600160a060020a03161415610f2b57918101915b92810192600101610e7b565b83836002021115610f80576000868152600160208190526040909120805473ffffffffffffffffffffffffffffffffffffffff191633600160a060020a03161790559450610f85565b600094505b50505050919050565b60005b600160a060020a03831660009081526006602052604090205481101561102257600160a060020a0383166000908152600660205260409020805483919083908110610fd857fe5b906000526020600020900154141561101a57600160a060020a038316600090815260066020526040902080548290811061100e57fe5b60009182526020822001555b600101610f91565b505050565b6000805b600160a060020a0384166000908152600660205260409020548110156110c757600160a060020a038416600090815260066020526040902080548290811061106f57fe5b906000526020600020900154600014156110bf57600160a060020a03841660009081526006602052604090208054849190839081106110aa57fe5b600091825260209091200155600191506110c7565b60010161102b565b8115156107d857600160a060020a03841660009081526006602052604090208054600181016110f683826111ea565b50600091825260209091200183905550505050565b828054600181600116156101000203166002900490600052602060002090601f016020900481019282601f1061114c57805160ff1916838001178555611179565b82800160010185558215611179579182015b8281111561117957825182559160200191906001019061115e565b5061118592915061120a565b5090565b828054828255906000526020600020908101928215611179579160200282018281111561117957825182559160200191906001019061115e565b60806040519081016040526004815b60008152602001906001900390816111d25790505090565b815481835581811511611022576000838152602090206110229181019083015b61122491905b808211156111855760008155600101611210565b905600a165627a7a72305820bec29bf92c087710af106097c1fbbb82be4ed8da21b0b2cee042e744199b2a4d0029",
  "source": "pragma solidity ^0.4.15;\n\ncontract CryptoCity {\n\n  /* Define variable owner of the type address */\n    address creator;\n\n    modifier onlyCreator() {\n        require(msg.sender == creator);\n        _;\n    }\n\n    modifier onlyCountryOwner(uint256 countryId) {\n        require(countries[countryId].president==msg.sender);\n        _;\n    }\n    modifier onlyCityOwner(uint cityId) {\n        require(cities[cityId].mayor==msg.sender);\n        _;\n    }\n    \n    struct Country {\n        address president;\n        string slogan;\n        string flagUrl;\n    }\n    struct City {\n        address mayor;\n        string slogan;\n        string picture;\n        uint purchases;\n    }\n    mapping(uint => Country) public countries ;\n    mapping(uint =>  uint[]) public countriesCities ;\n    mapping(uint =>  uint) public citiesCountries ;\n    \n    mapping(uint =>  uint) public cityPopulation ;\n    mapping(uint => City) public cities;\n    mapping(address => uint[]) public userCities;\n    mapping(address => uint) public userPendingWithdrawals;\n    mapping(address => string) public userNicknames;\n\n    function CryptoCity() public {\n        creator = msg.sender;\n    }\n\n    function () public payable {\n        revert();\n    }\n\n    /* This function is executed at initialization and sets the owner of the contract */\n    /* Function to recover the funds on the contract */\n    function kill() public\n    onlyCreator()\n    {\n        selfdestruct(creator);\n    }\n\n    // Contract initialisation\n    function addCountry(uint countryId,uint[] _cities,uint[]_populations)  public\n    onlyCreator()\n    {\n        countriesCities[countryId] = _cities;\n        for (uint i = 0;i<_cities.length;i++) {\n            citiesCountries[_cities[i]] = countryId;\n            cityPopulation[_cities[i]] = _populations[i];\n        }\n    }\n\n    function setCountrySlogan(uint countryId,string slogan) public\n    onlyCountryOwner(countryId)\n    {\n        countries[countryId].slogan = slogan;\n    }\n\n    function setCountryPicture(uint countryId,string _flagUrl) public\n    onlyCountryOwner(countryId)\n    {\n        countries[countryId].flagUrl = _flagUrl;\n    }\n\n    function setCitySlogan(uint256 cityId,string _slogan) public\n    onlyCityOwner(cityId)\n    {\n        cities[cityId].slogan = _slogan;\n    }\n\n    function setCityPicture(uint256 cityId,string _picture) public\n    onlyCityOwner(cityId)\n    {\n        cities[cityId].picture = _picture;\n    }\n\n\n    function withdraw() public {\n        uint amount = userPendingWithdrawals[msg.sender];\n        // Remember to zero the pending refund before\n        // sending to prevent re-entrancy attacks\n        userPendingWithdrawals[msg.sender] = 0;\n        msg.sender.transfer(amount);\n    }\n\n    function getPrices(uint purchases) public pure returns (uint[4]) {\n        uint price = 20000000000000000; // 16x0\n        uint pricePrev = 20000000000000000;\n        uint systemCommission = 19000000000000000;\n        uint presidentCommission = 1000000000000000;\n        uint ownerCommission;\n\n        for (uint i = 1;i<=purchases;i++) {\n            if (purchases<=7)\n                price = price*2;\n            else\n                price = price*12/10;\n\n            presidentCommission = (price-pricePrev)*5/100;\n            systemCommission = presidentCommission*4;\n            ownerCommission = price-presidentCommission-systemCommission;\n\n            pricePrev = price;\n          }\n        return [price,systemCommission,presidentCommission,ownerCommission];\n    }\n\n    function setNickname(string nickname) public {\n        userNicknames[msg.sender] = nickname;\n    }\n\n    function assignCountry(uint countryId)    public returns (bool) {\n        uint  totalPopulation;\n        uint  controlledPopulation;\n\n        uint  population;\n        for (uint i = 0;i<countriesCities[countryId].length;i++) {\n             population = cityPopulation[countriesCities[countryId][i]];\n            if (cities[countriesCities[countryId][i]].mayor==msg.sender) {\n                controlledPopulation += population;\n            }\n            totalPopulation += population;\n        }\n        if (controlledPopulation*2>(totalPopulation)) {\n            countries[countryId].president = msg.sender;\n            return true;\n        } else {\n            return false;\n        }\n    }\n\n    function buyCity(uint cityId) payable  public returns (bool) {\n        uint[4] memory prices = getPrices(cities[cityId].purchases);\n\n        if (cities[cityId].mayor==msg.sender) {\n            return false;\n        }\n        if (cityPopulation[cityId]==0) {\n            return false;\n        }\n\n        if ( msg.value+userPendingWithdrawals[msg.sender]>=prices[0]) {\n            // use user limit\n            userPendingWithdrawals[msg.sender] = userPendingWithdrawals[msg.sender]+msg.value-prices[0];\n            \n            cities[cityId].purchases = cities[cityId].purchases+1;\n\n            userPendingWithdrawals[cities[cityId].mayor] += prices[3];\n\n            if (countries[citiesCountries[cityId]].president==0) {\n                userPendingWithdrawals[creator] += prices[2];\n            } else {\n                userPendingWithdrawals[countries[citiesCountries[cityId]].president] += prices[2];\n            }\n            // change mayor\n            if (cities[cityId].mayor>0) {\n                _removeUserCity(cities[cityId].mayor,cityId);\n            }\n\n            cities[cityId].mayor = msg.sender;\n            _addUserCity(msg.sender,cityId);\n            //send money to creator\n            creator.transfer(prices[1]);\n            return false;\n\n        } else {\n            return false;\n        }\n    }\n\n    function _addUserCity(address user,uint cityId) private {\n    bool added = false;\n        for (uint i = 0; i<userCities[user].length; i++) {\n            if (userCities[user][i]==0) {\n                userCities[user][i] = cityId;\n                added = true;\n            break;\n        }\n    }\n        if (!added)\n            userCities[user].push(cityId);\n    }\n\n    function _removeUserCity(address user,uint cityId) private {\n        for (uint i = 0; i<userCities[user].length; i++) {\n            if (userCities[user][i]==cityId) {\n                delete userCities[user][i];\n            }\n        }\n    }\n\n}",
  "sourcePath": "/Users/ivankrasnikov/PhpstormProjects/crypto/contracts/CryptoCity.sol",
  "compiler": {
    "name": "solc",
    "version": "0.4.19+commit.c4cbbb05.Emscripten.clang"
  },
  "schemaVersion": "1.0.1",
  "updatedAt": "2018-02-13T23:07:56.229Z"
}